:100C180000C000F900A400B000990092008200F81A
:100C28000080009000FF00BF00C60040007900244B
:100C38000030001900120002007800000010007F48
:100C4800003F004681838587898B8D8082848688D2
:030C58008A8C8EF5
:100C9C0001230001250008480A0A0A0A0A0A0A0A5E
:100CAC000E320032003B00170005000B0005001649
:100CBC0008400000000000000000022B0000013082
:0F0CCC0000012F000150000251000002530000F0
:100E2900438E805389F0758A20758CD1C28DD28CFE
:050E3900D2A9D2AF2296
:100B8300E5A0541F44E0F5A07580FFE5A0541F4481
:100B9300C0F5A0AF217401A807088002C333D8FCB5
:100BA300F580E5A0541F44E0F5A074482521F8E63C
:100BB30025E02418F582E4340CF583740193F58061
:0A0BC3000521E521B40803E4F52143
:010BCD002205
:100E13008F488D498B4A850F4B85114C85134D8522
:060E2300154E85174F2259
:100CDC00E4F508E508900C4C93FF120D15AD07EDEB
:100CEC00C4540F75F00AA4FFED540F7A002FFFEADD
:100CFC0035F0FEE50825E02432F8A60608A607051F
:080D0C0008E508C3940740CB81
:010D140022BC
:100AD500900C5BE493FFE4FD120E3EE4F509E50995
:100AE50025E02432F8E6FE08E6FF7C007D0A1206C2
:100AF500A6EFC454F0FBE50925E02432F8E6FE082C
:100B0500E6FF7C007D0A1206A6EB2DFDE509900C9B
:100B15005393FF120E3E0509E509C3940740BF90A4
:0A0B25000C5BE493FF7D80020E3E9E
:100B2F008F098C0A8D0B900C5BE493FFE4FD120E82
:100B3F003EAB0BEB25E02432F8E6FE08E6FF7C0027
:100B4F007D0A1206A6EFC454F0FAEB25E02432F822
:100B5F00E6FE08E6FF7C007D0A1206A6EA2DFDE5FB
:100B6F0009900C5393FF120E3E900C5BE493FF7DA4
:040B7F0080020E3EA4
:100BCE00120D7B7FCC120DC17F44120DC17FC87EEA
:100BDE0000120DE3120D7B7FCC120DC17FBE120DE4
:100BEE00C1120DF98F09120DF9EF540FFEE509FF31
:100BFE00E4AD07AC06120585E4FBFA7920783F12C6
:090C0E00047A1205BE8E2B8F2C16
:010C170022BA
:100D490043B00FE5B0F4540F6022E530C394FF506F
:100D590002053020B303752F0420B203752F052037
:100D6900B103752F0620B009752F0722E4F530F578
:020D79002F2227
:100E520043B00FE5B0F4540F600620B3037F0822BD
:030E62007F0022EC
:10000E00E52A6003020412E52DB408004003020441
:10001E0079900026F828287302003E02004902005B
:10002E00EF02019102024E02029E02030D02037FB5
:10003E00752901752501E4F522800CE4F529F525D5
:10004E00752201E5237051AE36AF37FC7D0A1206DC
:10005E00A6AB07AE34AF357C007D0A1206A68E83A2
:10006E008F82AE32AF337C007D0A1206A68E148FBD
:10007E001585830E85820FAE36AF377C007D0A1252
:10008E0006A6C004C005AE34AF357C007D0A12064C
:10009E00A68C108D11020179AE34AF357C007D0A2D
:1000AE001206A6AA06AB07AE32AF337C007D0A124B
:1000BE0006A68E148F158A0E8B0FAE34AF357C00CC
:1000CE007D0A1206A68C108D1175120075130BAEDB
:1000DE0032AF337C007D0A1206A68C168D170203F2
:1000EE0008752202E523AE36AF37704CFC7D0A123E
:1000FE0006A6AB07AE34AF357C007D0A1206A68E7F
:10010E00838F82AE32AF337C007D0A1206A68E1428
:10011E008F1585830E85820FAE36AF377C007D0A34
:10012E001206A6C004C005AE34AF357C007D0A129F
:10013E0006A68C108D1180337C007D0A1206A6ABAC
:10014E0007AE32AF337C007D0A1206A68E148F15D1
:10015E00AE36AF377C007D0A1206A6C004C0057508
:10016E000E00750F0A75100075110A7512007513C1
:10017E000BAE32AF337C007D0A1206A68C168D179D
:10018E00020245752203E523AE36AF377061FC7D62
:10019E000A1206A6AB07AE34AF357C007D0A1206F6
:1001AE00A68E838F82AE32AF337C007D0A1206A6F6
:1001BE008E148F1585830E85820FAE36AF377C0079
:1001CE007D0A1206A6C004C005AE34AF357C007D94
:1001DE000A1206A68C108D1175120075130BAE3215
:1001EE00AF337C007D0A1206A68C168D1780487CD4
:1001FE00007D0A1206A6AB07AE34AF357C007D0A31
:10020E001206A68E0E8F0FAE36AF377C007D0A1209
:10021E0006A6C004C005AE34AF357C007D0A1206BA
:10022E00A68C108D1175120075130B7514007515B3
:10023E000A75160075170AAF03D005D00402040C18
:10024E00E4F529F524E54275F00A84FFE54275F0E0
:10025E000A84E5F0FD7C00E54175F00A84750E0018
:10026E00F50FE54175F00A84E5F0751000F511758E
:10027E00120075130BE54075F00A84751400F51520
:10028E00E54075F00A84E5F0751600F51702040CCA
:10029E00752401E523702DE54275F00A84FFE542D1
:1002AE0075F00A84E5F0FD7C00E54175F00A847571
:1002BE000E00F50FE54175F00A84E5F0751000F5B6
:1002CE001102035EE54175F00A84750E00F50FE527
:1002DE004175F00A84AFF07510008F11751200751C
:1002EE00130BE54075F00A84751400F515E540759D
:1002FE00F00A84AFF07516008F177B0B02046E7533
:10030E002402E523702CE54275F00A84FFE5427560
:10031E00F00A84E5F0FD7C00E54175F00A84750E67
:10032E0000F50FE54175F00A84E5F0751000F51142
:10033E00801EE54275F00A84FFE54275F00A84E5F9
:10034E00F0FD7C00750E00750F0A75100075110A10
:10035E0075120075130BE54075F00A84751400F5DF
:10036E0015E54075F00A84E5F0751600F5170204E0
:10037E000C752403E523704AE54275F00A84FFE507
:10038E004275F00A84E5F0FD7C00E54175F00A84C3
:10039E00750E00F50FE54175F00A84E5F075100055
:1003AE00F51175120075130BE54075F00A8475147E
:1003BE0000F515E54075F00A84E5F0751600F517A1
:1003CE00803CE54275F00A84FFE54275F00A84E54B
:1003DE00F0FD7C00E54175F00A84750E00F50FE521
:1003EE004175F00A84E5F0751000F511751200756F
:1003FE00130B75140075150A75160075170A7B0B0D
:10040E007A008064E52A64087061E5296401705BF6
:10041E00AE2BAF2CFC7D64120651AA06AB07AE2B99
:10042E00AF2C7C007D641206517E007F0ACFCDCFAB
:10043E00CECCCE120651EF240DF515E43EF5148AFE
:10044E00128B13750E00750F0A75100075110AAE1A
:10045E002BAF2C7C007D0A1206518C168D177B0A51
:0C046E007A007D0A7C007F0A120E132227
:1006EA00E531C3940A500302092B120D49E4F5318E
:1006FA00E52FB40715E530B40210052DE52DD39486
:10070A0003500302092BE4F52D22E52FB4061FE559
:10071A0030B4021AE52DD394035003752D03052D29
:10072A00E52DD39407500302092B752D0422E52FDA
:10073A006405702EE530B40229E5257025E522B45A
:10074A000120C3E5379417E536648094804008E4B5
:10075A00F536F5370208050537E537700205360222
:10076A000805E52F6405702EE530B40229E52570E9
:10077A0025E522B40220C3E535943BE53464809430
:10078A00804008E4F534F53502083E0535E5357054
:10079A0002053402083EE52F6405702EE530B402E6
:1007AA0029E5257025E522B40320C3E533943BE50A
:1007BA0032648094804008E4F532F5330208770504
:1007CA0033E53370020532020877E52F640470338B
:1007DA00E530B4022EE525702AE522B40125D3E5D9
:1007EA00379400E536648094805008753600753772
:1007FA00178008E5371537700215367D027C007FB1
:10080A0002806EE52F64047033E530B4022EE525CC
:10081A00702AE522B40225D3E5359400E5346480D4
:10082A009480500875340075353B8008E5351535D8
:10083A00700215347D017C007F018035E52F640448
:10084A007032E530B4022DE5257029E522B403247F
:10085A00D3E5339400E53264809480500875320001
:10086A0075333B8008E533153370021532E4FDFC1D
:10087A00FF020B2FE52FB40518E530B40213E52467
:10088A00B4010EE542C394174004E4F5422205423E
:10089A0022E52FB40518E530B40213E524B4020E9C
:1008AA00E541C3943B4004E4F54122054122E52F8A
:1008BA00B40518E530B40213E524B4030EE540C3C9
:1008CA00943B4004E4F54022054022E52FB4041885
:1008DA00E530B40213E524B4010EE542D394005086
:1008EA000475421722154222E52FB40418E530B4E4
:1008FA000213E524B4020EE541D394005004754175
:10090A003B22154122E52FB40417E530B40212E563
:10091A0024B4030DE540D39400500475403B2215DE
:02092A00402269
:100DA200E542B53719E4B53615E541B53510E4B578
:0F0DB200340CE540B53307E4B53203752E01224A
:100C5B007580FFE5A0541F4480F5A053A01FE4F559
:100C6B0080E5A0541F44A0F5A053A01F120E29121B
:100C7B000AD51206EA12000EE556B4F40DE555B48A
:100C8B000108120BCEE4F555F556120E528F2A8041
:010C9B00E177
:03000B0002092CBB
:10092C00C0E0C0F0C083C082C0D075D000C000C091
:10093C0001C002C003C004C005C006C007053105D4
:10094C0056E55670020555120B830527E5277002F4
:10095C000526FFAE26BE030CBFE8096323FF7526F0
:10096C00007527000550E550B4C80BE525B4010609
:10097C00120CDC755000120DA2E52E64016003020E
:10098C000A2EE52FB405047F0180027F00E52FB409
:10099C0004047E0180027E00EE4FFFE52FB40604B6
:1009AC007E0180027E00EE4FFFE52FB407047E012E
:1009BC0080027E00EE4F600E752E00E5A0541F44A1
:1009CC0080F5A07580FF0552E55270020551D39455
:1009DC00C8E5519400500BE5A0541F4480F5A07558
:1009EC0080FEC3E55294C8E5519400400BE5A05439
:1009FC001F4480F5A07580FFE552B4900BE551B40F
:100A0C0001067551007552000554E55470020553EA
:100A1C00FFAE53BE130CBF88097553007554007597
:100A2C002E00D007D006D005D004D003D002D001C0
:0D0A3C00D000D0D0D082D083D0F0D0E032F6
:100E6500E4FEC297EF1392A3EFC313FFD2970EBE12
:020E750008F083
:010E77002258
:100E3E00C29300C29700D29300120E65AF05120E38
:040E4E0065C29322C4
:100D1500E4FDC29300C29700D29300120E65E4FF72
:100D2500C297EDC313FD30A303430580D2970FBFD0
:100D350008EEC29300C29700D29700C2A300D2A3C7
:030D450000AF05F7
:010D48002288
:040DDF007F057E000E
:100DE300E4FC7D0B12063FAC06AD07ED1DAE0470AF
:050DF300011C4E70F62A
:010DF80022D8
:020DC100AB077E
:100DC300E4FAC294EB139294120DDFD294EBC313A3
:0C0DD300FB0ABA08ED7F057E00020DE36C
:100DF900E4FAC294EBC313FBD29430940343038007
:090E0900120DDF0ABA08EBAF0379
:010E120022BD
:100D7B00C200D2947F0C7E00120DE3C2947F507E92
:100D8B0000120DE3D2947F0A7E00120DE3A294921F
:060D9B0000120DDFA200B2
:010DA100222F
:10047A00EC4D6011E8497017ED33EC3304600DE47C
:10048A00FCFFFEFD22E933E8330470F802062A1263
:10049A0005F558046009E4CC248150062850090265
:1004AA000634284003020631C0E0EB4A7044B980A2
:1004BA0006D0E0FB020620EF4E701CBD8008EBFF61
:1004CA00EAFEE9FD80EBE98DF0A4FEE5F0020563A2
:1004DA00E9CDF9EAFEEBFFEF89F0A4FCE5F0CE895D
:1004EA00F0A42EFFE435F0CD89F0A42DFEE435F01A
:1004FA008067EF4E7005BD80D780C3EF8BF0A4AC48
:10050A00F0EE8BF0A42CFCE435F0F8EF8AF0A42C82
:10051A00E5F038FCE433CB8DF0A42CFCE5F03BF895
:10052A00EE8AF0A42CFCE5F038F8E433CF89F0A485
:10053A002CFCE5F038CF3400CE89F0A42FFFE5F08B
:10054A003EFEE433C98DF0A42EFEE5F039CD8AF0E3
:10055A00A42FFFE5F03EFEE43DFD33D0E0FB50075B
:10056A000BBB000F020634EC2CFCEF33FFEE33FE1C
:06057A00ED33FD02060C4A
:1005800075F020800E75F010800575F0087D007EF6
:10059000007F003392D530D5031206DCEC334010D7
:1005A000EF33FFEE33FEED33FDEC33FCD5F0ED22FF
:0E05B000E5F0247EA2D513CC92E7CDCEFF223B
:1005BE00EDD2E7CD33EC3392D524814006E4FFFE35
:1005CE00FDFC22FCE4CFCECDCC24E0501174FF8094
:1005DE00EDC3CC13CCCD13CDCE13CECF13CF047031
:0705EE00F030D5DE0206DC4F
:1005F500E9D2E7C933E833F892D5EDD2E7CD33EC4C
:0706050033FC5002B2D522C4
:10060C00EC30E7100FBF000C0EBE00080DBD00044F
:10061C000BEB6014A2D5EB13FCED92E7FD2274FFFB
:10062C00FCFDFEFF22E480F8A2D574FF13FC7D8054
:03063C00E480EF68
:03000000020A49A8
:0C0A4900787FE4F6D8FD758156020A9013
:10063F00EF8DF0A4A8F0CF8CF0A428CE8DF0A42ECF
:02064F00FE2289
:10065100BC000BBE0029EF8DF084FFADF022E4CC8D
:10066100F875F008EF2FFFEE33FEEC33FCEE9DEC56
:10067100984005FCEE9DFE0FD5F0E9E4CEFD22ED9C
:10068100F8F5F0EE8420D21CFEADF075F008EF2FE6
:10069100FFED33FD4007985006D5F0F222C398FDD7
:0506A1000FD5F0EA2274
:1006A600C2D5EC30E709B2D5E4C39DFDE49CFCEE6F
:1006B60030E715B2D5E4C39FFFE49EFE120651C390
:1006C600E49DFDE49CFC800312065130D507C3E48B
:0606D6009FFFE49EFE22DE
:0E06DC00C3E49FFFE49EFEE49DFDE49CFC222F
:100A5500020C5BE493A3F8E493A34003F68001F250
:100A650008DFF48029E493A3F85407240CC8C333A2
:100A7500C4540F4420C8834004F456800146F6DF71
:100A8500E4800B0102040810204080900C9CE47E59
:100A9500019360BCA3FF543F30E509541FFEE49366
:100AA500A360010ECF54C025E060A840B8E493A32D
:100AB500FAE493A3F8E493A3C8C582C8CAC583CA58
:100AC500F0A3C8C582C8CAC583CADFE9DEE780BE10
:010CDB000018
:00000001FF
