:0C000E00C0F9A4B0999282F88090FFBF66
:1007AE00043C7878787808340A0A0A0A0A0A0A0A8F
:0E07BE00012F00013000C1000122FF012401C3
:10080100438E805389F0758A20758CD1C28DD28C2C
:05081100D2AFD2A922C4
:10081600438E4053890F758BF4758DFFC28FD28E30
:05082600D2ABD2AF22AD
:1005F8007580FFE5A0541F44E0F5A053A01FAF216C
:100608007401A807088002C333D8FCF580E5A0541C
:100618001F44C0F5A053A01F74342521F8E69000AC
:100628000E93F580E5A0541F44E0F5A053A01F05E4
:0906380021E521B40803E4F521D9
:010641002296
:0A076E007B0A7A007D0A7C007F0AF6
:100778008F348D358B36850E37851038851239853F
:06078800143A85163B2225
:100556008F088B098A0A890B12085E7FA01207177B
:1005660012083EAF0812071712083E12085E7FA156
:1005760012071712083EAF0C150CEF60241207CDB8
:10058600AB09050BE50BAA0A7002050A14F9EF126E
:10059600075CE50C6004C2018002D2011207EA8002
:0405A600D5020879F9
:100642008F088B098A0A890B12085E7FA01207178E
:1006520012083EAF0812071712083EAF0C150CEF36
:10066200601FAB09050BE50BAA0A7002050A14F913
:10067200120743FF12071712083E7FC81208718043
:04068200DA02087917
:1006EA008F0812085E7F9012071712083EAF081291
:1006FA00071712083E12085E7F9112071712083E6A
:0D070A001207CD8F2ED2011207EA020879E6
:10078E008F1712085E7F9012071712083E7F4012D5
:10079E00071712083EAF1712071712083E02087904
:1006860043B00FE5B0F4540F6022E530C394FF5039
:1006960002053020B303752F0420B203752F052001
:1006A600B103752F0620B009752F0722E4F52FF543
:0206B6003022F0
:0F084F00852280E5A0541F4480F5A053A01F22EE
:10036600E53314603E14606814700302040F24031E
:10037600600302044AC3E532953CE531940050031C
:1003860002044AAF417401A807088002C333D8FCAF
:10039600F4F5220541E541B40806E4F5417533015B
:1003A600020445C3E532953DE5319400500302044D
:1003B6004AAF417480A807088002C313D8FCF4F53D
:1003C600220541E541B40806E4F541753302806F24
:1003D600C3E532953EE53194004069E54170037509
:1003E600227EE541B401037522BDE541B4020375E1
:1003F60022DBE541B403037522E70541E541B40478
:1004060006E4F5417533038036C3E532953FE531A1
:1004160094004030E541B4030375227EE541B40201
:10042600037522BDE541B401037522DBE541700386
:100436007522E70541E541B40405E4F541F533E4E9
:05044600F531F5322242
:10001E00E5456003020140E52914601514700302E2
:10002E0000CC2402600302020C752B01E4F544801F
:10003E000D752301752B01754401E5407040E524D3
:10004E00FD7C00750D00750E0A243BF8E6FF75F079
:10005E006484750F00F510EF75F06484E5F075F0AB
:10006E000A84751100F512E675F00A84AFF0751367
:10007E00008F14E4F515F5167B0BFA02013B750D96
:10008E0000750E0A743B2524F8E6FF75F06484753E
:10009E000F00F510EF75F06484E5F075F00A8475C5
:1000AE001100F512E675F00A84AFF07513008F1487
:1000BE00E4F515F5167B0AFA7D0AFC020207E4F553
:1000CE0023F52BE540703FE524FD7C00750D007592
:1000DE000E0A243BF8E6FF75F06484750F00F510E8
:1000EE00EF75F06484E5F075F00A84751100F51271
:1000FE00E675F00A84AFF07513008F14E4F515F56C
:10010E00167B0BFA8027E524FD7C00750D00750E1D
:10011E000A750F0075100A75110075120A75130015
:10012E0075140A75150075160A7B0B7A007F0B0283
:10013E000209E5456403600302020CE54460030214
:10014E00020CE52EC3943F5021750D00750E0A75F5
:10015E000F0075100A75110075120A7513007514CB
:10016E000B75150075160112076E743FC3952E5050
:10017E0027E52E947F5021750D00750E0A750F0020
:10018E0075100A75110075120A75130075140B752A
:10019E00150075160212076E747FC3952E5027E553
:1001AE002E94BF5021750D00750E0A750F00751037
:1001BE000A75110075120A75130075140B7515006A
:1001CE0075160312076E74BFC3952E5031E52E942B
:1001DE00FF502B750D00750E0A750F0075100A7500
:1001EE00110075120A75130075140B75150075162E
:0F01FE00047B0A7A007D0A7C007F0A12077822B0
:10020D00E528C3940A5003020365E4F52812068617
:10021D00E52FB4070DE530B40208B20020000375D8
:10022D0022FFE52FB40611E530B4020C0529E529AE
:10023D00C394034003E4F529E52FB40518E530B464
:10024D000213E523B4010E0524E524D394044020C4
:10025D00752401801BE52FB40416E530B40211E5B9
:10026D0023B4010C1524E524D39400500375240404
:10027D00E52F64057068E53064027062E52B705EF1
:10028D00E524B40112E53CC394784005753C288003
:10029D0006740A253CF53CE524B40212E53DC394F1
:1002AD00784005753D288006740A253DF53DE52409
:1002BD00B40312E53EC394784005753E288006745C
:1002CD000A253EF53EE524B40412E53FC39478407B
:1002DD0005753F288074740A253FF53F806CE52F26
:1002ED0064047074E5306402706EE52B706AE52469
:1002FD00B40112E53CD394285005753C7880067402
:10030D00F6253CF53CE524B40212E53DD394285086
:10031D0005753D78800674F6253DF53DE524B4035D
:10032D0012E53ED394285005753E78800674F62567
:10033D003EF53EE524B40412E53FD39428500575EF
:10034D003F78800674F6253FF53F7B007A00793CB7
:09035D00750C04E4FF12064222B3
:10082B0043B00FE5B0F4540F600620B3037F0322EF
:03083B007F002219
:1005AA007580FFE5A0541F4480F5A053A01FE4F511
:1005BA0080E5A0541F44A0F5A053A01F1208011201
:1005CA0008167B007A00793C750C04E4FF12055684
:1005DA0012082B8F45E52D700A7F031206EA752D46
:0E05EA0001D2AF12036612001E12020D80E253
:03000B000204D715
:1004D700C0E0C0F0C083C082C0D075D000C000C0EB
:1004E70006C00705280526E52670020525FFAE2567
:1004F700BE0315BF2012E54070047F0180027F0014
:100507008F40752500752600300012E52775F00A23
:1005170084E5F070080532E53270020531AF270532
:10052700277E00BE0306BFE8037527000543E543A2
:10053700B40A08752D00754300C2AF1205F8D0073D
:0F054700D006D000D0D0D082D083D0F0D0E03218
:03001B000206B822
:1006B800C0E0C0F0C0D00542E54275F0FF8485F087
:1006C80042E52EC39542400512084F800E7580FF03
:1006D800E5A0541F4480F5A053A01FD0D0D0F0D07F
:0206E800E032FE
:04086D00D2A07F0591
:0808710000AE071FEE70F92232
:0F085E00D2A112086DC2A17F05120871C2A0229B
:0C087900C2A112086DD2A17F0502087117
:1007EA00C2A0A20192A17F0512087112086DC2A0CF
:0707FA00D2A17F0502087186
:10083E0012086DA2A19201C2A07F05120871A20139
:01084E002287
:02071700AD072C
:10071900E4FCC2A07F05120871ED30E704D2A18084
:1007290002C2A17F05120871D2A0ED25E0FD7F0567
:090739001208710CBC08DBC2A01F
:010742002294
:1007CD00E4FC12086DED25E0FD30A103430501C2E7
:0C07DD00A07F051208710CBC08E8AF05F5
:0107E90022ED
:0300000002044BAC
:0C044B00787FE4F6D8FD7581450204922C
:10074300BB010689828A83E0225002E722BBFE02B4
:09075300E32289828A83E49322E7
:10075C00BB010689828A83F0225002F722BBFE017C
:02076C00F32276
:100457000205AAE493A3F8E493A34003F68001F20C
:1004670008DFF48029E493A3F85407240CC8C333A6
:10047700C4540F4420C8834004F456800146F6DF75
:10048700E4800B01020408102040809007AEE47E50
:10049700019360BCA3FF543F30E509541FFEE4936A
:1004A700A360010ECF54C025E060A840B8E493A331
:1004B700FAE493A3F8E493A3C8C582C8CAC583CA5C
:1004C700F0A3C8C582C8CAC583CADFE9DEE780BE14
:0107CC00002C
:00000001FF
