:10082200C0F9A4B0999282F88090FF8883C6A1860D
:0B0832008E407924301912027800106B
:100619000165960122FF085D0A0A0A0A0A0A0A0AFE
:10062900072781838587898B8D082E808284868818
:100639008A8C8E0E4F0032003B0017001E000B0003
:100649000600171038070B0F13060A0E1205090DBD
:050659001104080C1063
:0F091200852280E5A0541F4480F5A053A01F222A
:1008CA00438E805389F0438904E4F58AF58CC28DFE
:0308DA00D28C229B
:1008A100438E4053890F758B20758DD1C28FD28EA7
:0508B100D2AFD2AB2222
:100585007580FFE5A0541F44E0F5A053A01FAF21DF
:100595007401A807088002C333D8FCF580E5A05490
:1005A5001F44C0F5A053A01F745D2521F8E69008EF
:1005B5002293F580E5A0541F44E0F5A053A01F0544
:0905C50021E521B40803E4F5214D
:0105CE00220A
:10088B008F5D8D5E8B5F850E608510618512628535
:06089B00146385166422BF
:1005CF001207C07FCC1207E77F441207E77FC87E70
:1005DF000012085B1207C07FCC1207E77FBE12071D
:1005EF00E71208718F1C120871EF540FFEE51CFF04
:1005FF00E4AD07AC061201C9E4FBFA7920783F128B
:09060F00001E1202028E258F2646
:0106180022BF
:10048B008F1D1209217F901207941208F0AF1D12D5
:10049B0007941208F01209217F911207941208F0A9
:1004AB001208057523008F247F01120003120930F7
:1004BB00AC23AD24E41201C9E4FBFA79FA784312B8
:1004CB00001EE4FBFA797F78431201271202028E99
:0404DB00498F4A22D9
:1006E7008F081209217F901207941208F07F401299
:1006F70007941208F0AF081207941208F012093095
:10070700AC08E41201CEE4FBFA797F7843120127A3
:10071700E4FBFA79FA784312001E1202028F48228C
:1004DF008F178B188A19891A1209217FA012079476
:1004EF001208F0AF171207941208F01209217FA11A
:1004FF001207941208F0AF1B151BEF6024120805AA
:10050F00AB18051AE51AAA197002051914F9EF129A
:10051F00029CE51B6004E4FF80027F011200038050
:04052F00D5020930B8
:10065F008F698B6A8A6B896C1209217FA0120794AC
:10066F001208F0AF691207941208F0AF6D156DEF15
:10067F00601FAB6A056CE56CAA6B7002056B14F911
:10068F00120283FF1207941208F07FC812084180EC
:04069F00DA02093042
:10072700E4F51E7427251EF8E6FF120760AD07EDF6
:10073700C4540F75F00AA4FFED540F7A002FFFEA97
:1007470035F0FEE51E25E0244FF8A60608A60705A6
:080757001EE51EC3940740CB10
:01075F002277
:10053300E4FDAF351208B6E4F508E50825E0244FDD
:10054300F8E6FE08E6FF7C007D0A1202AEEFC45413
:10055300F0FBE50825E0244FF8E6FE08E6FF7C0003
:100563007D0A1202AEEB2DFD742E2508F8E6FF126C
:1005730008B60508E508C3940740BF7D80AF350280
:0205830008B6B8
:1003D30075B00FE4F5C0E5B0F4540F604EE54CC3BF
:1003E30094FF5002054C20B003E4F56620B1037579
:1003F300660120B20375660220B30375660375B008
:10040300F075C0FF20C403E4F56720C203756701DC
:1004130020B50375670220B403756703E56625E01D
:1004230025E024382567F8E6F54B22E4F54BF54C37
:0104330022A6
:100902001203D3E54BB40407E54CB40202054D22B1
:10043400E4F580E5A0541F44A0F5A053A01F7580E7
:10044400FFE5A0541F4480F5A053A01F1208CA1250
:1004540008A17F661206E7120533750D00750E0AB2
:10046400750F0075100A75110075120A7513007561
:10047400140A75150075160A7B0A7A007D0A7C0039
:07048400AF4D12088B80D37D
:03001B000206A337
:1006A300C0E0C083C082C0D075D000C000C00705C1
:1006B3004E0537E53770020536E54EB40A061209D2
:1006C30002754E00E537B4E80BE536B4030675361C
:1006D30000753700120585D007D000D0D0D082D066
:0406E30083D0E032AE
:1008DD00E4FEC297EF1392A3EFC313FFD2970EBEA0
:0208ED0008F011
:0108EF0022E6
:1008B600C29300C29700D293001208DDAF0512085A
:0408C600DDC29322DA
:10076000E4FDC29300C29700D293001208DDE4FFBB
:10077000C297EDC313FD30A303430580D2970FBF8B
:1007800008EEC29300C29700D29700C2A300D2A382
:0307900000AF05B2
:010793002243
:04083D00D2A07F05C1
:10084100000000000000000000000000000000AEF9
:06085100071FEE70EB2210
:0F092100D2A112083DC2A17F05120841C2A02237
:0C093000C2A112083DD2A17F05020841BF
:02079400AD07AF
:10079600E4FCC2A07F05120841ED30E704D2A18037
:1007A60002C2A17F05120841D2A0ED25E0FD7F051A
:0907B6001208410CBC08DBC2A0D2
:0107BF002217
:10080500E4FC12083DED25E0FD30A103430501C2DE
:0C081500A07F051208410CBC08E8AF05EC
:0108210022B4
:1008F00012083DA2A1E433FDC2A07F05120841AF5A
:0109000005F1
:0109010022D3
:10000300C2A0EF24FF92A17F0512084112083DC24E
:08001300A0D2A17F0502084103
:040857007F057E009B
:10085B00EF1FAA0670011E4A600BE4FDEDC3940C5A
:05086B0050EE0D80F7C6
:010870002265
:0207E700A90760
:1007E900E4FBC294E9139294120857D294E9C31313
:0C07F900F90BBB08ED7F057E0002085BD9
:10087100E4FBC294ECC313FCD29430940343048090
:090881001208570BBB08EBAF0491
:01088A00224B
:1007C000C200D2947F0C7E0012085BC2947F507EE0
:1007D0000012085BD2947F0A7E0012085BA29492FA
:0607E00000120857A20000
:0107E60022F0
:10001E00EC4D6011E8497017ED33EC3304600DE4DC
:10002E00FCFFFEFD22E933E8330470F802026E1283
:10003E00023958046009E4CC248150062850090284
:10004E000278284003020275C0E0EB4A7044B98082
:10005E0006D0E0FB020264EF4E701CBD8008EBFF81
:10006E00EAFEE9FD80EBE98DF0A4FEE5F002010762
:10007E00E9CDF9EAFEEBFFEF89F0A4FCE5F0CE89BD
:10008E00F0A42EFFE435F0CD89F0A42DFEE435F07A
:10009E008067EF4E7005BD80D780C3EF8BF0A4ACA8
:1000AE00F0EE8BF0A42CFCE435F0F8EF8AF0A42CE3
:1000BE00E5F038FCE433CB8DF0A42CFCE5F03BF8F6
:1000CE00EE8AF0A42CFCE5F038F8E433CF89F0A4E6
:1000DE002CFCE5F038CF3400CE89F0A42FFFE5F0EC
:1000EE003EFEE433C98DF0A42EFEE5F039CD8AF044
:1000FE00A42FFFE5F03EFEE43DFD33D0E0FB5007BC
:10010E000BBB000F020278EC2CFCEF33FFEE33FE3C
:06011E00ED33FD0202506A
:10012400020278EC5D046005E85904700302026E73
:10013400120239580460F6EC4860F2EC7004FDFEDB
:10014400FF22C860DB2481C85009C39860025006AE
:100154000202759850CAF582E9294B4A7005AB82B0
:1001640002026475F0007C1A7880C3EF9BEE9AED6E
:1001740099400DC3EF9BFFEE9AFEED99FDE842F026
:10018400DC23ACF0D0E0FFD0E0FED0E0FDAB822079
:10019400E7101BEB60BAEC2CFCEF33FFEE33FEED03
:1001A40033FD020250E803F830E705C0F075F000B3
:1001B400EF2FFFEE33FEED33FD40B830E7C280AAE7
:1001C40075F020800E75F010800575F0087D007EB6
:1001D400007F003392D530D5031202E4EC33401093
:1001E400EF33FFEE33FEED33FDEC33FCD5F0ED22BF
:0E01F400E5F0247EA2D513CC92E7CDCEFF22FB
:10020200EDD2E7CD33EC3392D524814006E4FFFEF4
:10021200FDFC22FCE4CFCECDCC24E0501174FF8053
:10022200EDC3CC13CCCD13CDCE13CECF13CF0470F0
:07023200F030D5DE0202E40A
:10023900E9D2E7C933E833F892D5EDD2E7CD33EC0B
:0702490033FC5002B2D52284
:10025000EC30E7100FBF000C0EBE00080DBD00040F
:100260000BEB6014A2D5EB13FCED92E7FD2274FFBB
:10027000FCFDFEFF22E480F8A2D574FF13FC7D8014
:03028000E480EF28
:03000000020347B1
:0C034700787FE4F6D8FD75816D02038E0E
:10028300BB010689828A83E0225002E722BBFE0279
:09029300E32289828A83E49322AC
:10029C00BB010689828A83F0225002F722BBFE0141
:0202AC00F3223B
:1002AE00C2D5EC30E709B2D5E4C39DFDE49CFCEE6B
:1002BE0030E715B2D5E4C39FFFE49EFE1202F2C3EF
:1002CE00E49DFDE49CFC80031202F230D507C3E4EA
:0602DE009FFFE49EFE22DA
:0E02E400C3E49FFFE49EFEE49DFDE49CFC222B
:10035300020434E493A3F8E493A34003F68001F288
:1003630008DFF48029E493A3F85407240CC8C333AB
:10037300C4540F4420C8834004F456800146F6DF7A
:10038300E4800B0102040810204080900619E47EEB
:10039300019360BCA3FF543F30E509541FFEE4936F
:1003A300A360010ECF54C025E060A840B8E493A336
:1003B300FAE493A3F8E493A3C8C582C8CAC583CA61
:1003C300F0A3C8C582C8CAC583CADFE9DEE780BE19
:01065E00009B
:1002F200BC000BBE0029EF8DF084FFADF022E4CCF0
:10030200F875F008EF2FFFEE33FEEC33FCEE9DECB8
:10031200984005FCEE9DFE0FD5F0E9E4CEFD22EDFE
:10032200F8F5F0EE8420D21CFEADF075F008EF2F48
:10033200FFED33FD4007985006D5F0F222C398FD39
:050342000FD5F0EA22D6
:00000001FF
