:10000300C0F9A4B0999282F88090FFC18CC840795E
:080013002430191202780010DC
:1006E10008440A0A0A0A0A0A0A0A0121000122FF29
:1006F100102A070B0F13060A0E1205090D11040823
:050701000C10013C009A
:10077300438E4053890F758B20758DD1C28FD28ED6
:05078300D2AFD2AB2251
:1005BF007580FFE5A0541F44E0F5A053A01FAF21A5
:1005CF007401A807088002C333D8FCF580E5A05456
:1005DF001F44C0F5A053A01F74442521F8E69000D6
:1005EF000393F580E5A0541F44E0F5A053A01F0529
:0905FF0021E521B40803E4F52113
:0106080022CF
:10075D008F448D458B46850E4785104885124985FA
:06076D00144A85164B2220
:0F079900852280E5A0541F4480F5A053A01F22A5
:100639008F081207A87F90120666120788AF081262
:1006490006661207881207A87F91120666120788A4
:0D0659001207298F3DD2001207460207C389
:020609008F0858
:10060B001207A87FA0120666120788AF08120666AB
:10061B001207881207A87FA1120666120788120715
:0D062B00298F09D2001207461207C3AF093C
:01063800229F
:100707008F088D091207A87FA0120666120788AF07
:1007170008120666120788AF0912066612078802D2
:0207270007C306
:1005070075B00FE4F5C0E5B0F4540F604EE53FC396
:1005170094FF5002053F20B003E4F54F20B1037567
:100527004F0120B203754F0220B303754F0375B017
:10053700F075C0FF20C403E4F55020C203755001D5
:1005470020B50375500220B403755003E54F25E02D
:1005570025E0242A2550F8E6F53E22E4F53FF53E4E
:010567002271
:10034F00E543640A45426003020400120507E4F521
:10035F0042F543E53EB40C15E53FB40210053CE50C
:10036F003CD394025003020400E4F53C22E53E64C2
:10037F0010702AE53F64027024E527B4011FC3E51E
:10038F002994F4E52894014007E4F528F529803DE8
:10039F0074322529F529E43528F5288030E53E64A7
:1003AF0011703CE53F64027036E527B40131D3E5A7
:1003BF00299400E528940050087528017529F480C8
:1003CF000C74CE2529F52974FF3528F528AE28AFF2
:1003DF00297C007D0A1201E3AD07E4FF020707E560
:1003EF003EB40D0DE53FB40208E53AB40103E4F560
:0203FF0040229A
:10069200E54E14601204701FD3E54D9529E54C9583
:1006A200284014754E0122C3E54D9529E54C952845
:0806B2005005E4F54E0540225D
:1006BA00C3E54D9529E54C952850140526E5267085
:1006CA000205259488E5259413400B75410122E41F
:0706DA00F541F525F526228C
:10024600E53C14606B14700302031424026003027D
:10025600034EE4F53AF527AE4CAF4DFC7D64120132
:10026600E3EF240EFBE43EFAAE4CAF4D7C007D641A
:100276001201E37E007F0ACFCDCFCECCCE1201E3B2
:100286008E138F148A118B12750D00750E0A750F59
:100296000075100AAE4CAF4D7C007D0A1201E38C4E
:1002A600158D167B0A7A007D0A7C007F0B02034BB4
:1002B600E4F53A752701AE28AF29FC7D641201E307
:1002C600EF240EFBE43EFAAE28AF297C007D6412D3
:1002D60001E37E007F0ACFCDCFCECCCE1201E38ED6
:1002E600138F148A118B12750D00750E0A750F0087
:1002F60075100AAE28AF297C007D0A1201E38C1521
:100306008D167B0A7A007D0A7C007F0C8037E4F527
:1003160027753A01F50D750E0AF50F75100AF511D8
:1003260075120AE54075F00A84751300F514E54068
:1003360075F00A84AFF07515008F167B0A7A007D7A
:090346000A7C007F0D12075D2204
:10048D00E4F580E5A0541F44A0F5A053A01F75808E
:10049D00FFE5A0541F4480F5A053A01F120773E47D
:1004AD00FF120609EF75F00AA485F028F529E53B42
:1004BD00B401227F03120639AC3DE412012E7BFB01
:1004CD007AFA79FA783F12001E1201628E4C8F4D26
:1004DD00D2AFE4F53B12034F120246120692E541EC
:1004ED00B401055322FE80037522FFE54030E0057F
:0A04FD005322FD80B943220280B4AF
:03001B0002056873
:10056800C0E0C0F0C083C082C0D075D000C000C059
:1005780004C005C006C0070543E54370020542AE46
:1005880042FF7C007D051201E3ED4C7003120799D0
:100598001206BA0524E524B40A05753B01C2AF1258
:1005A80005BFD007D006D005D004D000D0D0D08267
:0705B800D083D0F0D0E03247
:0407B700D2A07F0548
:0807BB0000AE071FEE70F922E9
:0F07A800D2A11207B7C2A17F051207BBC2A022C0
:0C07C300C2A11207B7D2A17F050207BB3C
:10074600C2A0A20092A17F051207BB1207B7C2A0E2
:07075600D2A17F050207BBE1
:100788001207B7A2A19200C2A07F051207BBA20060
:01079800223E
:02066600AD07DE
:10066800E4FCC2A07F051207BBED30E704D2A180ED
:1006780002C2A17F051207BBD2A0ED25E0FD7F05D0
:090688001207BB0CBC08DBC2A088
:010691002246
:10072900E4FC1207B7ED25E0FD30A103430501C242
:0C073900A07F051207BB0CBC08E8AF0550
:010745002291
:10001E00EC4D6011E8497017ED33EC3304600DE4DC
:10002E00FCFFFEFD22E933E8330470F80201CE1224
:10003E00019958046009E4CC248150062850090225
:10004E0001D82840030201D5C0E0EB4A7044B980C4
:10005E0006D0E0FB0201C4EF4E701CBD8008EBFF22
:10006E00EAFEE9FD80EBE98DF0A4FEE5F002010762
:10007E00E9CDF9EAFEEBFFEF89F0A4FCE5F0CE89BD
:10008E00F0A42EFFE435F0CD89F0A42DFEE435F07A
:10009E008067EF4E7005BD80D780C3EF8BF0A4ACA8
:1000AE00F0EE8BF0A42CFCE435F0F8EF8AF0A42CE3
:1000BE00E5F038FCE433CB8DF0A42CFCE5F03BF8F6
:1000CE00EE8AF0A42CFCE5F038F8E433CF89F0A4E6
:1000DE002CFCE5F038CF3400CE89F0A42FFFE5F0EC
:1000EE003EFEE433C98DF0A42EFEE5F039CD8AF044
:1000FE00A42FFFE5F03EFEE43DFD33D0E0FB5007BC
:10010E000BBB000F0201D8EC2CFCEF33FFEE33FEDD
:06011E00ED33FD0201B00B
:1001240075F020800E75F010800575F0087D007E56
:10013400007F003392D530D503120238EC334010DF
:10014400EF33FFEE33FEED33FDEC33FCD5F0ED225F
:0E015400E5F0247EA2D513CC92E7CDCEFF229B
:10016200EDD2E7CD33EC3392D524814006E4FFFE95
:10017200FDFC22FCE4CFCECDCC24E0501174FF80F4
:10018200EDC3CC13CCCD13CDCE13CECF13CF047091
:07019200F030D5DE02023857
:10019900E9D2E7C933E833F892D5EDD2E7CD33ECAC
:0701A90033FC5002B2D52225
:1001B000EC30E7100FBF000C0EBE00080DBD0004B0
:1001C0000BEB6014A2D5EB13FCED92E7FD2274FF5C
:1001D000FCFDFEFF22E480F8A2D574FF13FC7D80B5
:0301E000E480EFC9
:03000000020401F6
:0C040100787FE4F6D8FD758151020448B4
:1001E300BC000BBE0029EF8DF084FFADF022E4CC00
:1001F300F875F008EF2FFFEE33FEEC33FCEE9DECC9
:10020300984005FCEE9DFE0FD5F0E9E4CEFD22ED0E
:10021300F8F5F0EE8420D21CFEADF075F008EF2F58
:10022300FFED33FD4007985006D5F0F222C398FD49
:050233000FD5F0EA22E6
:0E023800C3E49FFFE49EFEE49DFDE49CFC22D7
:10040D0002048DE493A3F8E493A34003F68001F274
:10041D0008DFF48029E493A3F85407240CC8C333F0
:10042D00C4540F4420C8834004F456800146F6DFBF
:10043D00E4800B01020408102040809006E1E47E68
:10044D00019360BCA3FF543F30E509541FFEE493B4
:10045D00A360010ECF54C025E060A840B8E493A37B
:10046D00FAE493A3F8E493A3C8C582C8CAC583CAA6
:10047D00F0A3C8C582C8CAC583CADFE9DEE780BE5E
:0107060000F2
:00000001FF
