:100B7800C0F9A4B0999282F88090FF8CC8C1BF8E4A
:0C0B8800C6407924301912027800108950
:0D0C31000122FF083D0A0A0A0A0A0A0A0AFF
:0F0C1300852280E5A0541F4480F5A053A01F2226
:100BEF00438E805389F0438905E4F58AF58CC28DD5
:030BFF00D28C2273
:100BDA00438E4053890F758B20758DD1C28FD28E6B
:050BEA00D2AFD2AB22E6
:080C57007F3B7E5ADEFEDFFC4C
:010C5F002272
:1009B5007580FFE5A0541F44E0F5A053A01FAF21AB
:1009C5007401A807088002C333D8FCF580E5A0545C
:1009D5001F44C0F5A053A01F743D2521F8E6900BD8
:1009E5007893F580E5A0541F44E0F5A053A01F05BA
:0909F50021E521B40803E4F52119
:0109FE0022D6
:100BAE008F3D8D3E8B3F85114085134185154285C6
:060BBE00174385194422D3
:10090E008F0B120C227F90120A7B120C02AF0B126D
:10091E000A7B120C02120C227F91120A7B120C021D
:10092E00120B5B7527008F28D201120003120C4B9D
:10093E00AC27AD28E4120550E4FBFA794878421250
:10094E0003A5E4FBFA797F78431204AE1205898E73
:04095E00348F35227B
:100B1D008F1A120C227F90120A7B120C027F401248
:100B2D000A7B120C02AF1A120A7B120C02020C4B3A
:1009FF00120AD27FCC120B3D7F44120B3D7FC87E73
:100A0F0000120BC8120AD27FCC120B3D7FBE120B05
:100A1F003D120B948F0B120B94EF540FFEE50BFF4F
:100A2F00E4AD07AC06120550E4FBFA79C878401222
:090A3F0003A51205898E258F26FE
:010A4800228B
:100AF9008F088C098D0A120C227FA0120A7B120C16
:100B090002AF08120A7B120C02AF0A120A7B120CFE
:040B190002020C4B7D
:100AA7008F08120C227FA0120A7B120C02AF0812C9
:100AB7000A7B120C02120C227FA1120A7B120C0273
:0B0AC700120B5B752C008F2D020C4BF6
:100A490075B00FE5B0F4540F6022E538C394FF5038
:100A590002053820B00375370720B1037537062022
:100A6900B20375370520B30975370422E4F538F563
:020A7900372222
:10067F00120A49E537B40714E538B4020F7532038F
:10068F00E53370047F0180027F008F33E537B406B6
:10069F001DE538B40218E5297014E536C3943250BD
:1006AF0006E5369400500575360180020536E537AC
:1006BF0064066003020750E53864026003020750C6
:1006CF00E5296401707BE54570047F0180027F009E
:1006DF008F45E4FF120AA7852C3B852D3C7F011225
:1006EF000AA7AE2CAF2D7C007D6412060A8E2A8FCE
:1006FF002B7F02120AA7E52D252BF52BE52C352A8A
:10070F00F52A7F03120AA7AE2CAF2D7C037DE812CA
:10071F00060A8E308F317F04120AA7AE2CAF2D7CC4
:10072F00007D0A12060AEF2531F531EE3530F5302E
:10073F007F05120AA7E52D2531F531E52C3530F56A
:10074F0030E537640560030207E5E53864026003AE
:10075F000207E5AD35AC34FF120AF9120C57AE257E
:10076F00AF267C007D6412061CAC06AD077F01121C
:10077F000AF9120C57AE25AF267C007D6412061CB9
:10078F007F02120AF9120C57AE2EAF2F7C037DE8B1
:10079F0012061CAC06AD077F03120AF9120C57AEF6
:1007AF002EAF2F7C037DE812061C7E007F0ACFCD73
:1007BF00CFCECCCE12061CAC06AD077F04120AF9C1
:1007CF00120C57AE2EAF2F7C007D0A12061C7F0530
:1007DF00120AF9120C57E537B4040FE538B4020AC0
:0B07EF000532E532B40303E4F53222CA
:10001E00E5321470030200CC147003020247147010
:10002E0003020364240360030203A4752901E5455A
:10003E00704A5322FB432202432201AE34AF35FCF9
:10004E007D0A12061CEF2411F517E43EF516751005
:10005E000075110A75120075130A75140075150ACC
:10006E00AE34AF357C007D0A12061C8C188D197BC0
:10007E000A7A007D0A7C007F0D020361AE3BAF3C25
:10008E007C007D0A12061CEF2411F517E43EF516CE
:10009E0075100075110A75120075130A7514007526
:1000AE00150AAE3BAF3C7C007D0A12061C8C188DE7
:1000BE00197B0A7A007D0D7C007F1B020361752976
:1000CE0001E54560030201935322FD4322014322C1
:1000DE0004AE2EAF2F7C277D1012061CC007C00663
:1000EE00AE2EAF2F7C277D1012061C7E037FE8CF2D
:1000FE00CDCFCECCCE12061CAA06AB07AE2EAF2F9E
:10010E007C277D1012061C7E037FE8CFCDCFCECC90
:10011E00CE12061C7E007F64CFCDCFCECCCE120683
:10012E001C8E838F82AE2EAF2F7C277D1012061C65
:10013E007E037FE8CFCDCFCECCCE12061C7E007FC5
:10014E0064CFCDCFCECCCE12061C7E007F0ACFCD93
:10015E00CFCECCCE12061C8E168F178583148582B9
:10016E00158A128B13D010D011AE2EAF2F7C007DBE
:10017E000A12061C8C188D197B0A7A007D0A7C00E7
:10018E007F0F020361AE30AF317C277D1012061C4B
:10019E00C007C006AE30AF317C277D1012061C7E24
:1001AE00037FE8CFCDCFCECCCE12061CAA06AB076E
:1001BE00AE30AF317C277D1012061C7E037FE8CF58
:1001CE00CDCFCECCCE12061C7E007F64CFCDCFCE4F
:1001DE00CCCE12061C8E838F82AE30AF317C277D43
:1001EE001012061C7E037FE8CFCDCFCECCCE1206EA
:1001FE001C7E007F64CFCDCFCECCCE12061C7E00EF
:10020E007F0ACFCDCFCECCCE12061C8E168F178581
:10021E0083148582158A128B13D010D011AE30AF95
:10022E00317C007D0A12061C8C188D197B0A7A000F
:10023E007D0F7C007F1B020361752901E54560037C
:10024E000202DF5322FE432202432204AE25AF26D2
:10025E007C037DE812061CAA06AB07AE25AF267CF2
:10026E00037DE812061C7E007F64CFCDCFCECCCEB0
:10027E0012061CEF2411F582E43EF583AE25AF265F
:10028E007C037DE812061C7E007F64CFCDCFCECCE2
:10029E00CE12061C7E007F0ACFCDCFCECCCE12065C
:1002AE001C8E168F178583148582158A128B1375F3
:1002BE00100075110AAE25AF267C007D0A12061CB1
:1002CE008C188D197B0A7A007D0A7C007F10020340
:1002DE0061AE2AAF2B7C037DE812061CAA06AB0783
:1002EE00AE2AAF2B7C037DE812061C7E007F64CF06
:1002FE00CDCFCECCCE12061CEF2411F582E43EF506
:10030E0083AE2AAF2B7C037DE812061C7E007F6431
:10031E00CFCDCFCECCCE12061C7E007F0ACFCDCF56
:10032E00CECCCE12061C8E168F17858314858215A1
:10033E008A128B1375100075110AAE2AAF2B7C0032
:10034E007D0A12061C8C188D197B0A7A007D107C92
:10035E00007F1B020BAEE4F529F51075110AF5129C
:10036E0075130AF51475150AE53675F00A8424110D
:10037E00F517E433F516E53675F00A84AFF0751807
:10038E00008F197B0A7A007D0A7C007F0B120BAE60
:07039E00E5337002F5322285
:100962007580FFE5A0541F4480F5A053A01FE4F555
:1009720080E5A0541F44A0F5A053A01F120BEF1254
:100982000BDAAE23AF247C007D1412061CED4C70F2
:10099200087F0312090EE4F546AE23AF247C037DE3
:1009A2002012061CED4C70061209FFE4F539120004
:0309B2001E80CFD5
:03001B0002088652
:10088600C0E0C0F0C083C082C0D075D000C000C038
:1008960001C002C003C004C005C006C0070524E5A8
:1008A6002470020523053AE53AB40A06753A0012A1
:1008B600067FAE23AF247C007D0512061CED4C603E
:1008C60003120C13E524B4E821E523B4031C7523B5
:1008D60000752400C28CAF8CEF752F00F52EAF8A01
:1008E600EF422FE4F58AF58CD28C1209B5D007D0E9
:1008F60006D005D004D003D002D001D000D0D0D08D
:0809060082D083D0F0D0E03272
:040C3F00D2A07F05BB
:080C430000AE071FEE70F9225C
:0F0C2200D2A1120C3FC2A17F05120C43C2A02227
:0C0C4B00C2A1120C3FD2A17F05020C4395
:10000300C2A0A20192A17F05120C43120C3FC2A011
:07001300D2A17F05020C439E
:100C0200120C3FA2A19201C2A07F05120C43A201C5
:010C120022BF
:020A7B00AD07C5
:100A7D00E4FCC2A07F05120C43ED30E704D2A18047
:100A8D0002C2A17F05120C43D2A0ED25E0FD7F052A
:090A9D00120C430CBC08DBC2A0E2
:010AA600222D
:100B5B00E4FC120C3FED25E0FD30A103430501C27F
:0C0B6B00A07F05120C430CBC08E8AF058D
:010B7700225B
:040BC4007F057E002B
:100BC8007C007D0B12060AEF1FAC0670011E4C70EC
:010BD800F626
:010BD90022F9
:020B3D00AB0704
:100B3F00E4FAC294EB139294120BC4D294EBC31346
:0C0B4F00FB0ABA08ED7F057E00020BC80F
:100B9400E4FAC294EBC313FBD2943094034303806E
:090BA400120BC40ABA08EBAF03FE
:010BAD002225
:100AD200C201D2947F0C7E00120BC8C2947F507E5A
:100AE20000120BC8D2947F0A7E00120BC8A2949205
:060AF20001120BC4A20179
:010AF80022DB
:1003A500EC4D6011E8497017ED33EC3304600DE452
:1003B500FCFFFEFD22E933E8330470F80205F5126F
:1003C50005C058046009E4CC248150062850090270
:1003D50005FF2840030205FCC0E0EB4A7044B980E4
:1003E50006D0E0FB0205EBEF4E701CBD8008EBFF6D
:1003F500EAFEE9FD80EBE98DF0A4FEE5F002048E4E
:10040500E9CDF9EAFEEBFFEF89F0A4FCE5F0CE8932
:10041500F0A42EFFE435F0CD89F0A42DFEE435F0EF
:100425008067EF4E7005BD80D780C3EF8BF0A4AC1D
:10043500F0EE8BF0A42CFCE435F0F8EF8AF0A42C58
:10044500E5F038FCE433CB8DF0A42CFCE5F03BF86B
:10045500EE8AF0A42CFCE5F038F8E433CF89F0A45B
:100465002CFCE5F038CF3400CE89F0A42FFFE5F061
:100475003EFEE433C98DF0A42EFEE5F039CD8AF0B9
:10048500A42FFFE5F03EFEE43DFD33D0E0FB500731
:100495000BBB000F0205FFEC2CFCEF33FFEE33FE28
:0604A500ED33FD0205D756
:1004AB000205FFEC5D046005E8590470030205F5D5
:1004BB001205C0580460F6EC4860F2EC7004FDFEC7
:1004CB00FF22C860DB2481C85009C3986002500624
:1004DB000205FC9850CAF582E9294B4A7005AB829C
:1004EB000205EB75F0007C1A7880C3EF9BEE9AED5A
:1004FB0099400DC3EF9BFFEE9AFEED99FDE842F09C
:10050B00DC23ACF0D0E0FFD0E0FED0E0FDAB8220EE
:10051B00E7101BEB60BAEC2CFCEF33FFEE33FEED78
:10052B0033FD0205D7E803F830E705C0F075F0009E
:10053B00EF2FFFEE33FEED33FD40B830E7C280AA5C
:10054B0075F020800E75F010800575F0087D007E2B
:10055B00007F003392D530D503120671EC33401077
:10056B00EF33FFEE33FEED33FDEC33FCD5F0ED2234
:0E057B00E5F0247EA2D513CC92E7CDCEFF2270
:10058900EDD2E7CD33EC3392D524814006E4FFFE6A
:10059900FDFC22FCE4CFCECDCC24E0501174FF80C9
:1005A900EDC3CC13CCCD13CDCE13CECF13CF047066
:0705B900F030D5DE020671EF
:1005C000E9D2E7C933E833F892D5EDD2E7CD33EC81
:0705D00033FC5002B2D522FA
:1005D700EC30E7100FBF000C0EBE00080DBD000485
:1005E7000BEB6014A2D5EB13FCED92E7FD2274FF31
:1005F700FCFDFEFF22E480F8A2D574FF13FC7D808A
:03060700E480EF9D
:030000000207FAFA
:0C07FA00787FE4F6D8FD758146020841C6
:10060A00EF8DF0A4A8F0CF8CF0A428CE8DF0A42E04
:02061A00FE22BE
:10061C00BC000BBE0029EF8DF084FFADF022E4CCC2
:10062C00F875F008EF2FFFEE33FEEC33FCEE9DEC8B
:10063C00984005FCEE9DFE0FD5F0E9E4CEFD22EDD1
:10064C00F8F5F0EE8420D21CFEADF075F008EF2F1B
:10065C00FFED33FD4007985006D5F0F222C398FD0C
:05066C000FD5F0EA22A9
:0E067100C3E49FFFE49EFEE49DFDE49CFC229A
:10080600020962E493A3F8E493A34003F68001F29D
:1008160008DFF48029E493A3F85407240CC8C333F3
:10082600C4540F4420C8834004F456800146F6DFC2
:10083600E4800B0102040810204080900C31E47E15
:10084600019360BCA3FF543F30E509541FFEE493B7
:10085600A360010ECF54C025E060A840B8E493A37E
:10086600FAE493A3F8E493A3C8C582C8CAC583CAA9
:10087600F0A3C8C582C8CAC583CADFE9DEE780BE61
:010C3E0000B5
:00000001FF
