:0D0AF200C0F9A4B0999282F88090FFC68EE2
:100A8200010CFF01100008230A0A0A0A0A0A0A0ACC
:060A9200010800012B0029
:0F0AD400850C80E5A0541F4480F5A053A01F227D
:100AAF00538EBF53890F758B18758DFCC28FD28EE5
:030ABF00D2AB2295
:1008E8007580FFE5A0541F44E0F5A053A01FAF0892
:1008F8007401A807088002C333D8FCF580E5A0542A
:100908001F44C0F5A053A01F74232508F8E6900AD9
:10091800F293F580E5A0541F44E0F5A053A01F050D
:0909280008E508B40803E4F50831
:0109310022A3
:100A99008F238D248B25853526853727853928850C
:060AA9003B29853D2A22D5
:0207A800AB079D
:1007AA00E4F532F531F530F52FAC07120247E4FBD8
:1007BA00FA79A07840120127E4FBFA797F7843128C
:1007CA00001E8F328E318D308C2FE4FFFE7D7F7CB0
:1007DA0043AB32AA31A930A82F1201C4600D400BD5
:1007EA00E4F532F53175307F752F43120AE37F90B5
:1007FA001209FB120AC27F401209FB120AC2AF3267
:10080A00AE31AD30AC2F12027B1209FB120AC202C2
:02081A000AFFD3
:1009A2008F41120AE37FA01209FB120AC2AF411261
:1009B20009FB120AC2120AE37FA11209FB120AC240
:0D09C200120A4B8F1B7F01120003020AFF77
:100A27008F3E8C3F8D40120AE37FA01209FB120A0A
:100A3700C2AF3E1209FB120AC2AF401209FB120AEB
:040A4700C2020AFFDE
:1009CF00D2901209F4C2901209F4D2901209F4C213
:1009DF00901209F4D2901209F4C2901209F4D29035
:0509EF001209F4C290A2
:0609F40000007F24DFFE7D
:0109FA0022DA
:10081C0074FFFBFAE4FDFCF5D975F93C75E9B0C23F
:10082C00DF1209CF1209CFD2DE30910330DFFAC2CA
:10083C00DE20DF3EAFF9EFFEE42451FFEE34C3AD12
:10084C00E9FCEF4DFDAE04FFE41202427B7B7A140F
:10085C00792E783E12001E12027B7C277D1012032B
:10086C00737E007F0ACFCDCFCECCCE120373AA06F7
:06087C00AB07AE02AF0362
:010882002253
:1009700043B00FE5B0F4540F6022E51EC394FF505E
:1009800002051E20B003751C0720B103751C06204C
:10099000B203751C0520B309751C0422E4F51CF58F
:0209A0001E2215
:10068700E4F522120970E51CB4040BE51EB4050657
:10069700751D01E4F51AE51CB40511E51EB4050C3A
:1006A700E51A70047F0180027F008F1AE51CB406EB
:1006B7001FE51EB4051A050DE50DB40303750D01FD
:1006C700E50DB40103751A02E50DB40203E4F51A4A
:1006D700E51CB40714E51EB4050FE51AB4010A05B5
:1006E70011E511B40403E4F511E51CB40726E51E72
:1006F700B40521E51AB4021C740A2510F510D36459
:1007070080949E4003E4F510C3E510648094805004
:050717000375101E2215
:1003B700E51A14700302044B1470030205A6240205
:1003C70060030205E7AE1FAF207C007D6412031EA9
:1003D700C006C007AE1FAF207C007D0A12031E7C3B
:1003E700007D0A12031EAA04AB05AE2DAF2E7C00BA
:1003F7007D6412031E8E838F82AE2DAF2E7C007D0F
:100407000A12031E7C007D0A12031E8C3A8D3B855F
:1004170083388582398A348B35AE1FAF207C007DC7
:100427000A12031E8C368D37AE2DAF2E7C007D0A47
:1004370012031E8C3C8D3DD003D0027D0A7C007FC9
:100447000B0205E4E511146064147003020505143A
:100457007003020556240360030205E7AE12AF13CB
:100467007C007D6412031EAA06AB07AE12AF137C95
:10047700007D0A12031E7C007D0A12031E8C3A8D32
:100487003B8A388B3975340075350A7536007537F0
:100497000AAE12AF137C007D0A12031E8C3C8D3D01
:1004A7007B0A7A007D0A7C007F020205E4AE14AF66
:1004B700157C007D6412031EAA06AB07AE14AF15A8
:1004C7007C007D0A12031E7C007D0A12031E8C3AF3
:1004D7008D3B8A388B3975340075350A753600754A
:1004E700370AAE14AF157C007D0A12031E8C3C8DB3
:1004F7003D7B0A7A007D0A7C007F020205E4AE1686
:10050700AF177C007D6412031EAA06AB07AE16AFB9
:10051700177C007D0A12031E7C007D0A12031E8CC5
:100527003A8D3B8A388B3975340075350A75360034
:1005370075370AAE16AF177C007D0A12031E8C3C76
:100547008D3D7B0A7A007D0A7C007F020205E4AEBE
:1005570018AF197C007D6412031EAA06AB07AE18FC
:10056700AF197C007D0A12031E7C007D0A12031E50
:100577008C3A8D3B8A388B3975340075350A753658
:100587000075370AAE18AF197C007D0A12031E8C5E
:100597003C8D3D7B0A7A007D0A7C007F02803E7598
:1005A700340075350A75360075370A7538007539A0
:1005B7000AE51075F00A1202FCFF3395E0F53A8F51
:1005C7003BE51075F00A1202FCAFF0EF3395E0F54A
:1005D7003C8F3D7B0A7A007D0A7C007F0C120A99CA
:0105E70022F1
:10093200E50BB4011FE4F50EF50FF50BE52170058B
:10094200530CFE8003430C01052BE52BC39404508A
:1009520003750B01E51AB40205530CBF8003430C67
:0E09620040E51AB40104530C7F22430C80229E
:1005E800E4F580E5A0541F44A0F5A053A01F758032
:1005F800FFE5A0541F4480F5A053A01FD2AF120AF4
:10060800AFE51D6401702EF509F50A851F2D8520BB
:100618002EE52B25E02412F8A61F08A620AF2B05EF
:100628002BEFB40303E4F52B12081C8E1F8F20E474
:10063800F51D750B01AF10EF3395E0FED3E5209F54
:10064800E51F9E5005E4FF1207A8AF10EF3395E0B1
:10065800FED3E5209FE51F9E401DE5209FFDE51F79
:100668009EFCE41202427B0A7AD779A3783C1200F6
:0F0678001E12027B1207A81209321203B78082EA
:03001B0002088355
:10088300C0E0C083C082C0D075D000C000C006C025
:1008930007052CE52CB40506752C00120AD4052295
:1008A300E522B40A03120687050AE50A7002050960
:1008B300050FE50F7002050EFFAE0EBE0315BFE870
:1008C30012750900750A00E52170047F0180027F1B
:1008D300008F211208E8D007D006D000D0D0D082F4
:0508E300D083D0E032DB
:040A6800D2A07F0594
:100A6C00000000000000000000000000000000AECC
:060A7C00071FEE70EB22E3
:0F0AE300D2A1120A68C2A17F05120A6CC2A0221A
:0C0AFF00C2A1120A68D2A17F05020A6C95
:0209FB00AD0746
:1009FD00E4FCC2A07F05120A6CED30E704D2A180A1
:100A0D0002C2A17F05120A6CD2A0ED25E0FD7F0583
:090A1D00120A6C0CBC08DBC2A03B
:010A260022AD
:100A4B00E4FC120A68ED25E0FD30A103430501C269
:0C0A5B00A07F05120A6C0CBC08E8AF0577
:010A6700226C
:100AC200120A68A2A1E433FDC2A07F05120A6CAF2C
:010AD200051E
:010AD3002200
:10000300C2A0EF24FF92A17F05120A6C120A68C2F4
:08001300A0D2A17F05020A6CD6
:10001E00EC4D6011E8497017ED33EC3304600DE4DC
:10002E00FCFFFEFD22E933E8330470F80202E7120A
:10003E0002B258046009E4CC24815006285009020B
:10004E0002F12840030202EEC0E0EB4A7044B98090
:10005E0006D0E0FB0202DDEF4E701CBD8008EBFF08
:10006E00EAFEE9FD80EBE98DF0A4FEE5F002010762
:10007E00E9CDF9EAFEEBFFEF89F0A4FCE5F0CE89BD
:10008E00F0A42EFFE435F0CD89F0A42DFEE435F07A
:10009E008067EF4E7005BD80D780C3EF8BF0A4ACA8
:1000AE00F0EE8BF0A42CFCE435F0F8EF8AF0A42CE3
:1000BE00E5F038FCE433CB8DF0A42CFCE5F03BF8F6
:1000CE00EE8AF0A42CFCE5F038F8E433CF89F0A4E6
:1000DE002CFCE5F038CF3400CE89F0A42FFFE5F0EC
:1000EE003EFEE433C98DF0A42EFEE5F039CD8AF044
:1000FE00A42FFFE5F03EFEE43DFD33D0E0FB5007BC
:10010E000BBB000F0202F1EC2CFCEF33FFEE33FEC3
:06011E00ED33FD0202C9F1
:100124000202F1EC5D046005E8590470030202E781
:100134001202B2580460F6EC4860F2EC7004FDFE62
:10014400FF22C860DB2481C85009C39860025006AE
:100154000202EE9850CAF582E9294B4A7005AB8237
:100164000202DD75F0007C1A7880C3EF9BEE9AEDF5
:1001740099400DC3EF9BFFEE9AFEED99FDE842F026
:10018400DC23ACF0D0E0FFD0E0FED0E0FDAB822079
:10019400E7101BEB60BAEC2CFCEF33FFEE33FEED03
:1001A40033FD0202C9E803F830E705C0F075F0003A
:1001B400EF2FFFEE33FEED33FD40B830E7C280AAE7
:1001C40074F8CC6480CCC86480C8F58204604FC3E2
:1001D400EB9FF5F0EA9E42F0E99D42F0E89C45F081
:1001E400603C501DE5825FFFE582D313CB5BCBF40B
:1001F4002B5582FB50280ABA002409B90020088034
:100204001DE5825BFBE582D313CF5FCFF4C3132FCD
:100214005582FF50090EBE00050DBD00010CC3EB55
:100224009FF5F0EA9E42F0E99D42F0E89C45F060BB
:0902340007CC4820E701B3EC22DD
:10023D0075F020800E75F010800575F0087D007E3C
:10024D00007F003392D530D5031203A9EC33401053
:10025D00EF33FFEE33FEED33FDEC33FCD5F0ED2245
:0E026D00E5F0247EA2D513CC92E7CDCEFF2281
:10027B00EDD2E7CD33EC3392D524814006E4FFFE7B
:10028B00FDFC22FCE4CFCECDCC24E0501174FF80DA
:10029B00EDC3CC13CCCD13CDCE13CECF13CF047077
:0702AB00F030D5DE0203A9CB
:1002B200E9D2E7C933E833F892D5EDD2E7CD33EC92
:0702C20033FC5002B2D5220B
:1002C900EC30E7100FBF000C0EBE00080DBD000496
:1002D9000BEB6014A2D5EB13FCED92E7FD2274FF42
:1002E900FCFDFEFF22E480F8A2D574FF13FC7D809B
:0302F900E480EFAF
:0300000002071CD8
:0C071C00787FE4F6D8FD75814102076388
:1002FC00C2D530F707B2D563F0FF05F030E70CB28A
:10030C00D5F4048463F0FF05F080018430D502F449
:02031C000422B9
:10031E00BC000BBE0029EF8DF084FFADF022E4CCC3
:10032E00F875F008EF2FFFEE33FEEC33FCEE9DEC8C
:10033E00984005FCEE9DFE0FD5F0E9E4CEFD22EDD2
:10034E00F8F5F0EE8420D21CFEADF075F008EF2F1C
:10035E00FFED33FD4007985006D5F0F222C398FD0D
:05036E000FD5F0EA22AA
:10037300C2D5EC30E709B2D5E4C39DFDE49CFCEEA5
:1003830030E715B2D5E4C39FFFE49EFE12031EC3FC
:10039300E49DFDE49CFC800312031E30D507C3E4F7
:0603A3009FFFE49EFE2214
:0E03A900C3E49FFFE49EFEE49DFDE49CFC2265
:100728000205E8E493A3F8E493A34003F68001F2FA
:1007380008DFF48029E493A3F85407240CC8C333D2
:10074800C4540F4420C8834004F456800146F6DFA1
:10075800E4800B0102040810204080900A82E47EA5
:10076800019360BCA3FF543F30E509541FFEE49396
:10077800A360010ECF54C025E060A840B8E493A35D
:10078800FAE493A3F8E493A3C8C582C8CAC583CA88
:10079800F0A3C8C582C8CAC583CADFE9DEE780BE40
:010A9800005D
:00000001FF
